{
  "transactions": [
    {
      "hash": "0xa71ccf783c04b0813860a71bf2d7221855b40792581a8f66cde600791434dcaf",
      "transactionType": "CALL",
      "contractName": null,
      "contractAddress": "0x765de816845861e75a25fca122bb6898b8b1282a",
      "function": "approve(address,uint256)",
      "arguments": [
        "0x6188A95d23792045dcBE06f705E018a9d9Ed54A7",
        "500000000000000000"
      ],
      "transaction": {
        "from": "0xc16832565430dad8d4f43cf2c41af48590860620",
        "to": "0x765de816845861e75a25fca122bb6898b8b1282a",
        "gas": "0x11741",
        "value": "0x0",
        "input": "0x095ea7b30000000000000000000000006188a95d23792045dcbe06f705e018a9d9ed54a700000000000000000000000000000000000000000000000006f05b59d3b20000",
        "nonce": "0x37",
        "chainId": "0xa4ec"
      },
      "additionalContracts": [],
      "isFixedGasLimit": false
    },
    {
      "hash": "0x63cbd9e85f9d2d0b9575bfc3854180ede60a31f992c1e9b3cfcf8f22bbf29950",
      "transactionType": "CALL",
      "contractName": null,
      "contractAddress": "0x6188a95d23792045dcbe06f705e018a9d9ed54a7",
      "function": "createJob(address,address,uint256,uint256,string)",
      "arguments": [
        "0xc16832565430dAd8d4F43Cf2c41af48590860620",
        "0xc16832565430dAd8d4F43Cf2c41af48590860620",
        "500000000000000000",
        "50000000000000000",
        "Client requires a minimalist logo for a tech startup. Specifications: SVG format only, black and white color scheme, flat design with no gradients or 3D elements, must be scalable and work at both 32px and 512px. Freelancer submitted a brightly colored 3D cartoon mascot in PNG format. Deliverable does not meet the agreed specifications."
      ],
      "transaction": {
        "from": "0xc16832565430dad8d4f43cf2c41af48590860620",
        "to": "0x6188a95d23792045dcbe06f705e018a9d9ed54a7",
        "gas": "0x9d4d5",
        "value": "0x0",
        "input": "0x879397c4000000000000000000000000c16832565430dad8d4f43cf2c41af48590860620000000000000000000000000c16832565430dad8d4f43cf2c41af4859086062000000000000000000000000000000000000000000000000006f05b59d3b2000000000000000000000000000000000000000000000000000000b1a2bc2ec5000000000000000000000000000000000000000000000000000000000000000000a00000000000000000000000000000000000000000000000000000000000000152436c69656e742072657175697265732061206d696e696d616c697374206c6f676f20666f722061207465636820737461727475702e2053706563696669636174696f6e733a2053564720666f726d6174206f6e6c792c20626c61636b20616e6420776869746520636f6c6f7220736368656d652c20666c61742064657369676e2077697468206e6f206772616469656e7473206f7220334420656c656d656e74732c206d757374206265207363616c61626c6520616e6420776f726b20617420626f7468203332707820616e642035313270782e20467265656c616e636572207375626d69747465642061206272696768746c7920636f6c6f72656420334420636172746f6f6e206d6173636f7420696e20504e4720666f726d61742e2044656c6976657261626c6520646f6573206e6f74206d65657420746865206167726565642073706563696669636174696f6e732e0000000000000000000000000000",
        "nonce": "0x38",
        "chainId": "0xa4ec"
      },
      "additionalContracts": [],
      "isFixedGasLimit": false
    }
  ],
  "receipts": [
    {
      "status": "0x1",
      "cumulativeGasUsed": "0x2f0bab",
      "logs": [
        {
          "address": "0x765de816845861e75a25fca122bb6898b8b1282a",
          "topics": [
            "0x8c5be1e5ebec7d5bd14f71427d1e84f3dd0314c0f7b2291e5b200ac8c7c3b925",
            "0x000000000000000000000000c16832565430dad8d4f43cf2c41af48590860620",
            "0x0000000000000000000000006188a95d23792045dcbe06f705e018a9d9ed54a7"
          ],
          "data": "0x00000000000000000000000000000000000000000000000006f05b59d3b20000",
          "blockHash": "0x5670769de271abaa4aa31da69c58e590e5c0136b81e3eb2175a2cfdefdf176f9",
          "blockNumber": "0x3b7f909",
          "blockTimestamp": "0x69c1815f",
          "transactionHash": "0xa71ccf783c04b0813860a71bf2d7221855b40792581a8f66cde600791434dcaf",
          "transactionIndex": "0xd",
          "logIndex": "0xf8",
          "removed": false
        }
      ],
      "logsBloom": "0x00000000000000000000000000000000000000000000000000000000000000000000080000000000000000002000020000000000000100000000000000200000000000000000000000000000000000000000000000000000000000000000000000000000000000000000000000000000000000000000000000000000000000000000000000000000000000000000000000000000000000000000000000000000020000000000000000000000000000000000000000000800000000000000000000000000000000000000000000000000002800000000002000000000000000000010000000000000000000000000000000000000000000000000000000200000",
      "type": "0x2",
      "transactionHash": "0xa71ccf783c04b0813860a71bf2d7221855b40792581a8f66cde600791434dcaf",
      "transactionIndex": "0xd",
      "blockHash": "0x5670769de271abaa4aa31da69c58e590e5c0136b81e3eb2175a2cfdefdf176f9",
      "blockNumber": "0x3b7f909",
      "gasUsed": "0xca2e",
      "effectiveGasPrice": "0x5d22e82cd",
      "from": "0xc16832565430dad8d4f43cf2c41af48590860620",
      "to": "0x765de816845861e75a25fca122bb6898b8b1282a",
      "contractAddress": null,
      "l1BaseFeeScalar": "0x0",
      "l1BlobBaseFee": "0x56ea164945bfaa",
      "l1BlobBaseFeeScalar": "0x0",
      "l1Fee": "0x0",
      "l1GasPrice": "0xc1af4f9",
      "l1GasUsed": "0x640"
    },
    {
      "status": "0x1",
      "cumulativeGasUsed": "0xa8383",
      "logs": [
        {
          "address": "0x765de816845861e75a25fca122bb6898b8b1282a",
          "topics": [
            "0x8c5be1e5ebec7d5bd14f71427d1e84f3dd0314c0f7b2291e5b200ac8c7c3b925",
            "0x000000000000000000000000c16832565430dad8d4f43cf2c41af48590860620",
            "0x0000000000000000000000006188a95d23792045dcbe06f705e018a9d9ed54a7"
          ],
          "data": "0x0000000000000000000000000000000000000000000000000000000000000000",
          "blockHash": "0xb92ffeed699e6590c1f7f1b7be914fa7901e164dda4c2c56e0f30b6a6480237b",
          "blockNumber": "0x3b7f90a",
          "blockTimestamp": "0x69c18160",
          "transactionHash": "0x63cbd9e85f9d2d0b9575bfc3854180ede60a31f992c1e9b3cfcf8f22bbf29950",
          "transactionIndex": "0x3",
          "logIndex": "0x6",
          "removed": false
        },
        {
          "address": "0x765de816845861e75a25fca122bb6898b8b1282a",
          "topics": [
            "0xddf252ad1be2c89b69c2b068fc378daa952ba7f163c4a11628f55a4df523b3ef",
            "0x000000000000000000000000c16832565430dad8d4f43cf2c41af48590860620",
            "0x0000000000000000000000006188a95d23792045dcbe06f705e018a9d9ed54a7"
          ],
          "data": "0x00000000000000000000000000000000000000000000000006f05b59d3b20000",
          "blockHash": "0xb92ffeed699e6590c1f7f1b7be914fa7901e164dda4c2c56e0f30b6a6480237b",
          "blockNumber": "0x3b7f90a",
          "blockTimestamp": "0x69c18160",
          "transactionHash": "0x63cbd9e85f9d2d0b9575bfc3854180ede60a31f992c1e9b3cfcf8f22bbf29950",
          "transactionIndex": "0x3",
          "logIndex": "0x7",
          "removed": false
        },
        {
          "address": "0x6188a95d23792045dcbe06f705e018a9d9ed54a7",
          "topics": [
            "0x8f4ee83cefe0dfb2f73fe6057bfa5b233fc43358bbb5f5606f444cbd4c5c4f8c",
            "0x000000000000000000000000000000000000000000000000000000000000000c",
            "0x000000000000000000000000c16832565430dad8d4f43cf2c41af48590860620",
            "0x000000000000000000000000c16832565430dad8d4f43cf2c41af48590860620"
          ],
          "data": "0x000000000000000000000000000000000000000000000000063eb89da4ed0000",
          "blockHash": "0xb92ffeed699e6590c1f7f1b7be914fa7901e164dda4c2c56e0f30b6a6480237b",
          "blockNumber": "0x3b7f90a",
          "blockTimestamp": "0x69c18160",
          "transactionHash": "0x63cbd9e85f9d2d0b9575bfc3854180ede60a31f992c1e9b3cfcf8f22bbf29950",
          "transactionIndex": "0x3",
          "logIndex": "0x8",
          "removed": false
        }
      ],
      "logsBloom": "0x00000000000000000000000000000000000002000000000000000000000000000000080000000200000000002000020000000000000100000000000000200000800000000000000000000009000000000004000000000000000000000000000000000000000000000000000000000000000000000000000000000010000000000000000000000000000000000000000000000000000000000000000000000000020000000000000000000000000000000000000000000800000000000000000000000002400000000000000000000000002800000000002000080000000000200030000000000000000000000000000000000000000000000000000000200000",
      "type": "0x2",
      "transactionHash": "0x63cbd9e85f9d2d0b9575bfc3854180ede60a31f992c1e9b3cfcf8f22bbf29950",
      "transactionIndex": "0x3",
      "blockHash": "0xb92ffeed699e6590c1f7f1b7be914fa7901e164dda4c2c56e0f30b6a6480237b",
      "blockNumber": "0x3b7f90a",
      "gasUsed": "0x71e25",
      "effectiveGasPrice": "0x5d22e82cd",
      "from": "0xc16832565430dad8d4f43cf2c41af48590860620",
      "to": "0x6188a95d23792045dcbe06f705e018a9d9ed54a7",
      "contractAddress": null,
      "l1BaseFeeScalar": "0x0",
      "l1BlobBaseFee": "0x56ea164945bfaa",
      "l1BlobBaseFeeScalar": "0x0",
      "l1Fee": "0x0",
      "l1GasPrice": "0xc1af4f9",
      "l1GasUsed": "0x17f3"
    }
  ],
  "libraries": [],
  "pending": [],
  "returns": {},
  "timestamp": 1774289248095,
  "chain": 42220,
  "commit": "542e94a"
}