{
  "transactions": [
    {
      "hash": "0x3bd82a2a83bc3bf157f58a12ab61f7a2be03e3e5a28309623a090ba69d9295b6",
      "transactionType": "CALL",
      "contractName": null,
      "contractAddress": "0x765de816845861e75a25fca122bb6898b8b1282a",
      "function": "approve(address,uint256)",
      "arguments": [
        "0x6188A95d23792045dcBE06f705E018a9d9Ed54A7",
        "500000000000000000"
      ],
      "transaction": {
        "from": "0xc16832565430dad8d4f43cf2c41af48590860620",
        "to": "0x765de816845861e75a25fca122bb6898b8b1282a",
        "gas": "0x11741",
        "value": "0x0",
        "input": "0x095ea7b30000000000000000000000006188a95d23792045dcbe06f705e018a9d9ed54a700000000000000000000000000000000000000000000000006f05b59d3b20000",
        "nonce": "0x27",
        "chainId": "0xa4ec"
      },
      "additionalContracts": [],
      "isFixedGasLimit": false
    },
    {
      "hash": "0x76ffe8d9122412b8510d5684e7c2729312edc3854786676474a0ffa436fd69ad",
      "transactionType": "CALL",
      "contractName": null,
      "contractAddress": "0x6188a95d23792045dcbe06f705e018a9d9ed54a7",
      "function": "createJob(address,address,uint256,uint256,string)",
      "arguments": [
        "0xc16832565430dAd8d4F43Cf2c41af48590860620",
        "0xc16832565430dAd8d4F43Cf2c41af48590860620",
        "500000000000000000",
        "50000000000000000",
        "Client requires a minimalist logo for a tech startup. Specifications: SVG format only, black and white color scheme, flat design with no gradients or 3D elements, must be scalable and work at both 32px and 512px. Freelancer submitted a brightly colored 3D cartoon mascot in PNG format. Deliverable does not meet the agreed specifications."
      ],
      "transaction": {
        "from": "0xc16832565430dad8d4f43cf2c41af48590860620",
        "to": "0x6188a95d23792045dcbe06f705e018a9d9ed54a7",
        "gas": "0x9d4d5",
        "value": "0x0",
        "input": "0x879397c4000000000000000000000000c16832565430dad8d4f43cf2c41af48590860620000000000000000000000000c16832565430dad8d4f43cf2c41af4859086062000000000000000000000000000000000000000000000000006f05b59d3b2000000000000000000000000000000000000000000000000000000b1a2bc2ec5000000000000000000000000000000000000000000000000000000000000000000a00000000000000000000000000000000000000000000000000000000000000152436c69656e742072657175697265732061206d696e696d616c697374206c6f676f20666f722061207465636820737461727475702e2053706563696669636174696f6e733a2053564720666f726d6174206f6e6c792c20626c61636b20616e6420776869746520636f6c6f7220736368656d652c20666c61742064657369676e2077697468206e6f206772616469656e7473206f7220334420656c656d656e74732c206d757374206265207363616c61626c6520616e6420776f726b20617420626f7468203332707820616e642035313270782e20467265656c616e636572207375626d69747465642061206272696768746c7920636f6c6f72656420334420636172746f6f6e206d6173636f7420696e20504e4720666f726d61742e2044656c6976657261626c6520646f6573206e6f74206d65657420746865206167726565642073706563696669636174696f6e732e0000000000000000000000000000",
        "nonce": "0x28",
        "chainId": "0xa4ec"
      },
      "additionalContracts": [],
      "isFixedGasLimit": false
    }
  ],
  "receipts": [
    {
      "status": "0x1",
      "cumulativeGasUsed": "0xf9a70",
      "logs": [
        {
          "address": "0x765de816845861e75a25fca122bb6898b8b1282a",
          "topics": [
            "0x8c5be1e5ebec7d5bd14f71427d1e84f3dd0314c0f7b2291e5b200ac8c7c3b925",
            "0x000000000000000000000000c16832565430dad8d4f43cf2c41af48590860620",
            "0x0000000000000000000000006188a95d23792045dcbe06f705e018a9d9ed54a7"
          ],
          "data": "0x00000000000000000000000000000000000000000000000006f05b59d3b20000",
          "blockHash": "0x7ac71e29e8f9df0508f773d490651d9edb7984cf3f70bd9f8a4d09939864afe7",
          "blockNumber": "0x3b52a6f",
          "blockTimestamp": "0x69beb2c5",
          "transactionHash": "0x3bd82a2a83bc3bf157f58a12ab61f7a2be03e3e5a28309623a090ba69d9295b6",
          "transactionIndex": "0xe",
          "logIndex": "0x1f",
          "removed": false
        }
      ],
      "logsBloom": "0x00000000000000000000000000000000000000000000000000000000000000000000080000000000000000002000020000000000000100000000000000200000000000000000000000000000000000000000000000000000000000000000000000000000000000000000000000000000000000000000000000000000000000000000000000000000000000000000000000000000000000000000000000000000020000000000000000000000000000000000000000000800000000000000000000000000000000000000000000000000002800000000002000000000000000000010000000000000000000000000000000000000000000000000000000200000",
      "type": "0x2",
      "transactionHash": "0x3bd82a2a83bc3bf157f58a12ab61f7a2be03e3e5a28309623a090ba69d9295b6",
      "transactionIndex": "0xe",
      "blockHash": "0x7ac71e29e8f9df0508f773d490651d9edb7984cf3f70bd9f8a4d09939864afe7",
      "blockNumber": "0x3b52a6f",
      "gasUsed": "0xca2e",
      "effectiveGasPrice": "0x5d22e82d5",
      "from": "0xc16832565430dad8d4f43cf2c41af48590860620",
      "to": "0x765de816845861e75a25fca122bb6898b8b1282a",
      "contractAddress": null,
      "l1BaseFeeScalar": "0x0",
      "l1BlobBaseFee": "0x1c6aa5b21996f",
      "l1BlobBaseFeeScalar": "0x0",
      "l1Fee": "0x0",
      "l1GasPrice": "0x277929e",
      "l1GasUsed": "0x640"
    },
    {
      "status": "0x1",
      "cumulativeGasUsed": "0x16b895",
      "logs": [
        {
          "address": "0x765de816845861e75a25fca122bb6898b8b1282a",
          "topics": [
            "0x8c5be1e5ebec7d5bd14f71427d1e84f3dd0314c0f7b2291e5b200ac8c7c3b925",
            "0x000000000000000000000000c16832565430dad8d4f43cf2c41af48590860620",
            "0x0000000000000000000000006188a95d23792045dcbe06f705e018a9d9ed54a7"
          ],
          "data": "0x0000000000000000000000000000000000000000000000000000000000000000",
          "blockHash": "0x7ac71e29e8f9df0508f773d490651d9edb7984cf3f70bd9f8a4d09939864afe7",
          "blockNumber": "0x3b52a6f",
          "blockTimestamp": "0x69beb2c5",
          "transactionHash": "0x76ffe8d9122412b8510d5684e7c2729312edc3854786676474a0ffa436fd69ad",
          "transactionIndex": "0xf",
          "logIndex": "0x20",
          "removed": false
        },
        {
          "address": "0x765de816845861e75a25fca122bb6898b8b1282a",
          "topics": [
            "0xddf252ad1be2c89b69c2b068fc378daa952ba7f163c4a11628f55a4df523b3ef",
            "0x000000000000000000000000c16832565430dad8d4f43cf2c41af48590860620",
            "0x0000000000000000000000006188a95d23792045dcbe06f705e018a9d9ed54a7"
          ],
          "data": "0x00000000000000000000000000000000000000000000000006f05b59d3b20000",
          "blockHash": "0x7ac71e29e8f9df0508f773d490651d9edb7984cf3f70bd9f8a4d09939864afe7",
          "blockNumber": "0x3b52a6f",
          "blockTimestamp": "0x69beb2c5",
          "transactionHash": "0x76ffe8d9122412b8510d5684e7c2729312edc3854786676474a0ffa436fd69ad",
          "transactionIndex": "0xf",
          "logIndex": "0x21",
          "removed": false
        },
        {
          "address": "0x6188a95d23792045dcbe06f705e018a9d9ed54a7",
          "topics": [
            "0x8f4ee83cefe0dfb2f73fe6057bfa5b233fc43358bbb5f5606f444cbd4c5c4f8c",
            "0x0000000000000000000000000000000000000000000000000000000000000008",
            "0x000000000000000000000000c16832565430dad8d4f43cf2c41af48590860620",
            "0x000000000000000000000000c16832565430dad8d4f43cf2c41af48590860620"
          ],
          "data": "0x000000000000000000000000000000000000000000000000063eb89da4ed0000",
          "blockHash": "0x7ac71e29e8f9df0508f773d490651d9edb7984cf3f70bd9f8a4d09939864afe7",
          "blockNumber": "0x3b52a6f",
          "blockTimestamp": "0x69beb2c5",
          "transactionHash": "0x76ffe8d9122412b8510d5684e7c2729312edc3854786676474a0ffa436fd69ad",
          "transactionIndex": "0xf",
          "logIndex": "0x22",
          "removed": false
        }
      ],
      "logsBloom": "0x00000000000000000000000000000000000000000000000000000000000000000000080000000000000000002000020000000000000180000000000000200000800000000000000000000009000000000004000000000000000000000000000000000000000000000000000000000000000000000000000000000010000000000080000000000000000000000000000000000000000000000000000000000000020000000000000000000000000000000000000000000800000000000000000040000002400000000000000000000000002800000000002000080000000000000030000000000000000000000000000000000000000000000000000000200000",
      "type": "0x2",
      "transactionHash": "0x76ffe8d9122412b8510d5684e7c2729312edc3854786676474a0ffa436fd69ad",
      "transactionIndex": "0xf",
      "blockHash": "0x7ac71e29e8f9df0508f773d490651d9edb7984cf3f70bd9f8a4d09939864afe7",
      "blockNumber": "0x3b52a6f",
      "gasUsed": "0x71e25",
      "effectiveGasPrice": "0x5d22e82d5",
      "from": "0xc16832565430dad8d4f43cf2c41af48590860620",
      "to": "0x6188a95d23792045dcbe06f705e018a9d9ed54a7",
      "contractAddress": null,
      "l1BaseFeeScalar": "0x0",
      "l1BlobBaseFee": "0x1c6aa5b21996f",
      "l1BlobBaseFeeScalar": "0x0",
      "l1Fee": "0x0",
      "l1GasPrice": "0x277929e",
      "l1GasUsed": "0x17f3"
    }
  ],
  "libraries": [],
  "pending": [],
  "returns": {},
  "timestamp": 1774105285930,
  "chain": 42220,
  "commit": "deeead3"
}